:020000040800F2
:10000000A81F0020750200087D0200087F0200087A
:100010008102000883020008850200080000000039
:10002000000000000000000000000000DD010008EA
:10003000890200080000000021020008DD18000805
:100040008F0200088F0200088F020008E1160008E6
:100050008F0200088F0200088F0200088F0200083C
:100060008F0200088F0200088F0200088F0200082C
:100070008F0200088F0200088F0200088F0200081C
:100080008F0200088F020008F11300080000000032
:100090000000000000000000000000008F020008C7
:1000A0008F0200088F0200088F0200088F020008EC
:1000B000751900088F0200088F0200088F020008DF
:1000C0008F0200088F0200088F0200088F020008CC
:1000D0008F020008D11A00088F0200088F02000862
:1000E0008F0200088F0200088F0200080000000045
:1000F0000000000000000000000000000000000000
:1001000000000000000000000000000000000000EF
:1001100000000000000000008F0200088F020008AD
:1001200000F002F800F04AF80AA090E8000C8244BF
:100130008344AAF10107DA4501D100F03FF8AFF29C
:10014000090EBAE80F0013F0010F18BFFB1A43F0B5
:10015000010318470C2B00002C2B0000103A24BF81
:1001600078C878C1FAD8520724BF30C830C144BF1C
:1001700004680C607047000000230024002500265E
:10018000103A28BF78C1FBD8520728BF30C148BFFA
:100190000B607047662902F01685752900F09E8075
:1001A000002070471FB500F0E5FB0400002000218F
:1001B00002F048FAE0601FBD10B510BD00F0DAFC97
:1001C0001146FFF7EFFF01F0F3FC00F0F8FC03B479
:1001D000FFF7F2FF03BC00F03BFD0000224B196863
:1001E0000868B0E8F00F80F30988BFF36F8F4FF015
:1001F000000080F311884EF00D0E704700000000E3
:1002000006480068006880F3088862B661B6BFF3EC
:100210004F8FBFF36F8F00DF00BF00BF08ED00E01E
:10022000EFF30980BFF36F8F0F4B1A6820E9F00FCF
:10023000106008B54FF0BF0080F31188BFF34F8FF7
:10024000BFF36F8F01F0E8FF4FF0000080F31188DB
:10025000BDE8084019680868B0E8F00F80F3098825
:10026000BFF36F8F704700BF2C000020EFF30580B5
:10027000704700000948804709480047FEE7FEE74D
:10028000FEE7FEE7FEE7FEE7FEE7FEE7FEE7FEE746
:1002900004480549054A064B70470000111900083B
:1002A00021010008A8190020A81F0020A81B002079
:1002B000A81B00200FB41CB5074B06AA7B44694657
:1002C0000090059800F03DFB0020694600F04CFBD3
:1002D0001CBC5DF814FB0000A90600002DE9F041EC
:1002E0000646002410687529314616A510D0AFF3D4
:1002F0000080002802DA404213A507E031688A072F
:1003000001D512A502E0490704D511A5012401E099
:10031000AFF3008000210A2206F1240709E0B0FBB8
:10032000F2FCB0FBF2F302FB1C00303078541846AC
:10033000491C0028F3D123462A463046BDE8F04147
:1003400000F092B8000000002D0000002B0000001B
:10035000200000002DE9F0474FF0000A89460446CE
:10036000C0F820A02046E1688847002876D02528DC
:1003700006D0D4E901219047206A401C2062F1E7B1
:10038000E168204600258847C4F81CA006460027DF
:10039000C4F818A02A2E09D0304601F001FC38B369
:1003A00004EB8708303EC8F8186019E059F8041BC0
:1003B000204604EB87029161E1688847012F0646D9
:1003C00018D1E069002820DA25F020051DE0D8F8D2
:1003D000180000EB800006EB40003038C8F8180029
:1003E0002046E1688847064601F0DAFB0028EED196
:1003F000012F0AD02E2E08D12046E16888477F1CA5
:100400000646022F45F02005C4DBA069002803DA68
:10041000404245F00105A061E80701D025F0100534
:10042000B6B1A6F14100192802D8203645F400657E
:100430004A463146204625604D46FFF7ABFE58B18F
:10044000012806D0ED1D25F0070000F1080989E715
:1004500004E005F1040985E730468AE7206ABDE833
:10046000F0877047704770472DE9F0470D46994671
:100470009246044600F124080168880604D5E06924
:1004800021F01001216000E00120A84201DD471B9E
:1004900000E00027A1697A1902EB0900081AA0619F
:1004A0002078C00602D42046AFF30080002608E082
:1004B000D4E901211AF806009047206A401C761CF6
:1004C00020624E45F4DB2078C0060AD52046AFF303
:1004D000008006E0D4E9012130209047206A401CCA
:1004E0002062381EA7F10107F4DC07E0D4E90121FE
:1004F00018F805009047206A401C2062281EA5F1CC
:100500000105F3DC2046AFF300802078000602D519
:100510000220BDE8F0870120FBE770472DE9FF4F7F
:100520000C461E464FF0FF378BB0D2E90001DDF8D4
:1005300060800A908A46C1F30A5505B93D460021FC
:1005400008464FF00000BAF1000F00F4400005DA51
:1005500000EB80004FF4400101EA50004FEA90594F
:10056000B9F1010F00DDB9460A9850EA4A000ED0F1
:1005700044F61050A5F2FF3545432F14B8F1000F93
:100580001ED07542291E1EDDC9F100021CE0B8F123
:10059000010F4FF0000001D0302103E0F24305E0ED
:1005A0002154401CB042FBDB304600220021215484
:1005B0000B99C1F80880C1E900200FB0BDE8F08FA9
:1005C000BD1B6D1CDEE74A4600DA694206A800F052
:1005D0005BFA06AB93E8070003AB83E807005046DD
:1005E0000A9900F03CFB8DE80700A0F500501F3889
:1005F00000900398002D0ADD42F21F014A4608448C
:10060000002303A90390684600F0A5FD09E0A0F5CA
:1006100000504A461F38002303A90390684600F0A3
:10062000AFFD8DE807000004000C03D04FF0FF3051
:10063000410800E01046B8F1000F03D000220092FC
:1006400015461EE0751E05D400F098F9303262554B
:100650006D1EF9D5B3460122084302D000227F1C4B
:1006600004E02078302801D100227F1E002A09975B
:1006700084D01DE0112D07DA00F080F93032625588
:100680006D1C50EA0102F5D1084302D00098C8B1B0
:100690000EE00021681E05E0235C625C6354225476
:1006A000401E491C8142F7DBAB46A81B401E099047
:1006B000002004F80B000B98099AC0F80880C0E9E4
:1006C000002B7AE711264FF0000857E72DE9F04F8D
:1006D00088460446D21D22F0070191B0D1E90001FD
:1006E000CDE90A0101F048FA02460B98C00F01D08B
:1006F0002D2007E02068810701D52B2002E0202172
:1007000001EAC000032A099001D0072A05DB03464D
:100710004146204600F078F90BE12078800601D5AB
:10072000E06900E00620B8F1650F814606D0B8F117
:10073000660F18D0B8F1670F70D131E00020B9F121
:10074000110F009001DB112301E009F101030AAA56
:1007500001A90CA8FFF7E2FEDDE90C70002609F103
:100760000105834647E001204B4600904FF00047CB
:100770000AAA01A90CA8FFF7D1FEDDE90DB00C997A
:100780005D46002610B909F101000D18B9EB05000E
:1007900003D4C0F1FF3609F10105A5EB09002BE0F8
:1007A000B9F1010F01DA4FF001090020B9F1110F81
:1007B0000090484601DD112300E003460AAA01A982
:1007C0000CA8FFF7ABFEDDE90C704D460026834612
:1007D000207800070AD4AB4500DA5D4601A8012D58
:1007E00004DD411911F8011C302907D04F4502DA08
:1007F00017F1040F04DA012082460FE06D1EEEE7C8
:10080000002F02DCED1B3E4403E0781CA84200DD13
:100810007D1CB81B00F1010A4FF00047207800074B
:1008200003D4AA4501DB4FF0FF3A0021B7F1004F96
:100830000DF143088DF8431024D002202B23002F04
:1008400001DA7F422D230A21021EA0F1010000DC03
:100850005FB197FBF1FC97FBF1F201FB1C7C1746A3
:100860000CF1300C08F801CDEEE7A8F1010003709F
:100870002188090501D5452100E06521A0F1010885
:1008800000F8011C09980FA9A1EB0807FF1D00B192
:100890000120411901EBEA70A1693844081A401E91
:1008A000A0612078C00602D42046AFF300800998EA
:1008B00028B1D4E901219047206A401C20622078A9
:1008C000C00622D52046AFF300801EE0002E04DBD8
:1008D000B34502DD01A8805D00E03020D4E90121AC
:1008E0009047206A401C2062761CAAF101005FEA52
:1008F000000A0AD100F03EF8C0680168405CD4E903
:1009000001219047206A401C2062281EA5F10105A4
:10091000DCDC07E0D4E9012118F8010B9047206ADC
:10092000401C2062381EA7F10107F3DC2046AFF31C
:100930000080032011B041E601694A1C0261087879
:10094000704700B58FB0CDE901310021059105490F
:100950007944CDE9031011466846FFF7FBFC0FB060
:1009600000BD0000E5FFFFFF0A6802F8010B0A6006
:1009700070470000004870476419002030B5B0F19E
:100980000A024FEA900E71F100034EEA817EB0EB4D
:100990000E0061EB91014FEA101E4EEA017E10EB52
:1009A0000E0041EB11114FEA102E4EEA016E10EBD2
:1009B0000E0041EB11214FEA104E4EEA014E10EBB2
:1009C0000E0041EB1141401841F100014FEAD00007
:1009D00040EA41704FEAD10110EB80054FEA8104F3
:1009E00044EA907444EB01046D1944EB0404521B77
:1009F000A3414FF0000348BF0A3200D530BD401C70
:100A000041F1000130BD00002DE9F0411F460446D0
:100A100003260168072A01F4006004DB08B116A56B
:100A200005E016A503E008B115A500E015A521F025
:100A300010002060A069C01EA0610FB1401EA0611F
:100A40002046AFF300804FB1D4E9012138469047EA
:100A5000206A401C2062C01C206206E0206AFAE77F
:100A6000D4E9012115F8010B9047761EF8D22046F3
:100A7000AFF30080BDE8F0814E414E006E616E0024
:100A8000494E4600696E66002DE9F04781461646DC
:100A90008AB0354878440DC88DE80D003248784456
:100AA000801C03AC0DC884E80D0041F69B3008445F
:100AB000372190FBF1F290FBF1F5A5F1800501FBE8
:100AC00012041B3C02D56442012000E00020DFF844
:100AD00098A080460027FA44AAF1BE0A0EE0E0077B
:100AE0000AD03246684607EB470101230AEB810131
:100AF00000F046FB8DE8070064107F1C002CEED14F
:100B0000194F7F44AE3F19E0E80715D007EB0410FA
:100B10000DF1180A90E80E008AE80E00C068F04255
:100B200001D1981908903246012306A903A800F0C4
:100B300027FB03AB83E807006D10641C002DE3D195
:100B40004FF0010332466946B8F1000F03A802D006
:100B500000F001FB01E000F013FBC9E90001C9F856
:100B600008200AB0BDE8F087B021000000487047B7
:100B7000441900207546FFF7F9FFAE4605006946A7
:100B8000534620F00700854618B020B5FFF780FBDC
:100B9000BDE820404FF000064FF000074FF000087E
:100BA0004FF0000B21F00701AC46ACE8C009ACE8FF
:100BB000C009ACE8C009ACE8C0098D46704710B563
:100BC0000446AFF300802046BDE81040FFF7FFBAAF
:100BD0004FF0013C50F8042B51F8043B9A4221D1CC
:100BE000A2EB0C03934313EACC1317D150F8042B58
:100BF00051F8043B9A4215D1A2EB0C03934313EA3C
:100C0000CC130BD150F8042B51F8043B9A4209D174
:100C1000A2EB0C03934313EACC13DBD04FF000009C
:100C2000704700BFD01A01BAB1FA81F101F0180182
:100C300022FA01F0CB40C1F12001DBB2C0B2C01AF0
:100C40002CFA01F3D11A914311EAC311E6D170478E
:100C500001491820ABBEFEE72600020070475FEA9C
:100C6000400C08BF91F0000F4FEA8C234FEAC122DD
:100C700043EA51514FEA1C5018BF00F5F0404FEACB
:100C8000300018BF41F000415FEA6C5C00F0298041
:100C9000BCF1FF3F08BF40F080407047130C06BF17
:100CA00012044FF0100C4FF0000C130E04BF120290
:100CB0000CF1080C130F04BF12010CF1040C930F7C
:100CC00004BF92000CF1020CD30F04BF52000CF1D0
:100CD000010C11464FF00002A0F11F00A0EB0C0028
:100CE000704711F0004F08BF704731F000413FF4EA
:100CF000D5AF0B0C06BF09044FF0100C4FF0000CE1
:100D00000B0E04BF09020CF1080C0B0F04BF090104
:100D10000CF1040C8B0F04BF89000CF1020CCB0FFB
:100D200004BF49000CF1010CCCF12003A0EB0C0036
:100D300022FA03F302FA0CF241EA030100F1010086
:100D4000704720F07F4C80EA030023F07F47ACEB34
:100D5000070303F57C5300F0004003F1FF032DE986
:100D600080494FEA154B09B44FEA144325EA0B4E6C
:100D700024EA03480FF2042606EB132749083E78BD
:100D80005FEA320203FB0667C7F5000707FB06F6BA
:100D90004FEA54374FEAD64606F1020607FB066CC7
:100DA000CCF1005C4FEA1C472CEA074C07FB06F429
:100DB0000CFB06F504EB15464FEA961634BF0020EF
:100DC0004FF000404FEAD13706FB07FC4FEA1C4CBE
:100DD0000CFB0BF7D21B03FB0CF761EB07010CFBC1
:100DE0000EF7B0EB074072EB17420CFB08F734BF6D
:100DF000A2EB0742B2EB074261EB17414FEA0C440A
:100E00004FEA910706FB07FC4FEA1C4C0CFB0BF763
:100E1000B0EBC74072EB573203FB0CF734BFA2EBC9
:100E2000C742B2EBC74261EB57310CFB0EF7B0EB98
:100E3000C70072EB57720CFB08F734BFA2EBC70276
:100E4000B2EBC70261EB5771039F4FEA816141EA40
:100E5000921104EBCC044FEAD1374FEA826206FBD1
:100E600007FC42EA90124FEA80604FEA1C4C0CFBF0
:100E70000BF7D21B03FB0CF761EB07010CFB0EF722
:100E8000B0EB074072EB17420CFB08F734BFA2EB44
:100E90000742B2EB074261EB17414FEA8C554FEA2C
:100EA000910704EB9C2406FB07FC4FEA1C4C0CFB4F
:100EB0000BF7B0EBC74072EB573203FB0CF734BFB4
:100EC000A2EBC742B2EBC74261EB57310CFB0EF706
:100ED000B0EBC70072EB57720CFB08F734BFA2EB04
:100EE000C702B2EBC70261EB577115EB4C254FEA15
:100EF000816141EA92114FEA82624FEAD13742EAB8
:100F0000901206FB07FC44F100044FEA80604FEAB0
:100F10001C4C0CFB0BF7D21B03FB0CF761EB07011E
:100F20000CFB0EF7B0EB074072EB17420CFB08F717
:100F300034BFA2EB0742B2EB074261EB174115EB5E
:100F40001C154FEA813141EA92414FEA823242EA6E
:100F500090424FEA80304FEA0C7644F1000448EAB0
:100F600003434EEA0B484FF0000EB2EB080C71EB56
:100F7000030724BF624639464EEB0E0E4FF0000BBE
:100F80000018524149414BEB0B0BB2EB080C71EBD3
:100F900003077BF1000B24BF624639464EEB0E0E71
:100FA0004FF0000B0018524149414BEB0B0BB2EBD9
:100FB000080C71EB03077BF1000B24BF6246394636
:100FC0004EEB0E0E51EA020718BF46F0010616EB73
:100FD0000E7655F1000254F1000103D5BDE88901F8
:100FE000BDE80088BDE88901BDE80048B619524156
:100FF00041EB0101A3F10103704780807F7E7D7C7E
:101000007B7A7978777676757473727171706F6E9A
:101010006E6D6C6C6B6A6A69686867666665646445
:10102000636362616160605F5F5E5E5D5D5C5C5BCF
:101030005B5A5A595958585757565655555554543E
:10104000535352525251515050504F4F4F4E4E4D9C
:101050004D4D4C4C4C4B4B4B4A4A4A4949494848E8
:101060004847474747464646454545444444444328
:1010700043434342424242414141002B9C4630D4CB
:1010800077002BD01CB54FEA370703B44FF01000A0
:101090004FF01001BAF1000F06D0BCF1000FDCBF19
:1010A00040F0080040F008014FF000000FBCBDE820
:1010B00010400BF1010BBBF1010F08BF5FEA1707EE
:1010C00022BF12F1010211F101014FF0004143F181
:1010D000000300F0004043EA00007047F9D35708CE
:1010E000D0E746EA064613F1400F4FEA16461FDDE9
:1010F00013F1200FDFBF16430A46002120335B4265
:10110000BED0C3F1200746EA064602FA07F74FEAC7
:10111000164646EA0706C3F1200722FA03F201FA4F
:1011200007F721FA03F14FF0000342EA0702A7E7AD
:1011300046EA020646EA06464FEA164646EA01062F
:10114000BCBF46EA0646360C4FF000034FF00002E3
:101150004FF0000194E72DE9804C9A46934670B415
:1011600091E8380007C831EA400C48BF34EA430C24
:1011700003D5FFF7E6FDFFF780FFF0BCBDE8008C6C
:101180002DE9804C9A46934670B491E8380007C820
:1011900010F0804F08BF13F0804F03D100F005F826
:1011A000FFF76BFFF0BCBDE8008C20F07F4780EAC2
:1011B000030023F07F4C07EB0C03A3F57C5300F0F6
:1011C0000040A3F1FE0392F0000F00F0B38095F011
:1011D000000F00F077802DE901494FEA11404FEAF6
:1011E000144621EA004800FB06FC24EA064708FBF7
:1011F00006F607FB08F800FB07F718EB06484CEB70
:10120000164C4FEA124B18EB07484FEA15464CEBC9
:10121000174022EA0B4E0BFB06FC25EA06470EFBA5
:1012200006F607FB0EFE0BFB07F71EEB064E4CEB1C
:10123000164C4FF000061EEB074E4CEB174B18EB0D
:101240000B0840F1000018EB0E0B58EB000840F1C2
:1012500000008F1A4FF000013CBFC943661B14BF4A
:10126000B5EB040C00213CBFC943F61B4FEA174401
:101270004EEA8E0E27EA04454FEA1C4704FB07623C
:101280002CEA074C05FB07F70CFB05F604FB0CFCEE
:1012900016EB074642EB174216EB0C4642EB1C429C
:1012A0001BEB060658EB0202414146EA9E0601D5B9
:1012B000BDE80189B619524141EB0101A3F10103D7
:1012C000BDE801894FEA14454FEA114724EA054673
:1012D00021EA074C05FB07F406FB07F70CFB06F1B8
:1012E00005FB0CFC11EB074144EB17444FEA124796
:1012F00011EB0C4144EB1C4422EA074C05FB07F2BE
:1013000006FB07F70CFB06F605FB0CFC16EB074685
:1013100042EB174216EB0C4642EB1C456A1854F19F
:10132000000148BF7047B619524141EB0101A3F1DA
:101330000103704795F0000F37D04FEA11424FEA92
:10134000144721EA024624EA074C02FB07F106FB98
:1013500007F70CFB06F402FB0CFC14EB074441EB13
:1013600017414FEA154714EB0C4441EB1C4125EAA9
:10137000074C02FB07F506FB07F70CFB06F602FB22
:101380000CFC16EB074645EB174516EB0C4645EBF8
:101390001C42121951F1000148BF7047B619524161
:1013A00041EB0101A3F1010370474FEA14454FEAF5
:1013B000114724EA054621EA074C05FB07F106FB25
:1013C00007F70CFB06F24FF0000605FB0CFC12EBD6
:1013D000074241EB174112EB0C4251EB1C4148BF55
:1013E0007047921841EB0101A3F10103704700001F
:1013F00070B5234800780A280CDA2248006881B2C8
:101400001F4802780078401C1D4B18701E4820F8B9
:10141000121034E000200AE01B490A880B46411CE8
:1014200033F8111011441A461180411CC8B21449F6
:1014300009788842F0DB144800881149097890FB4C
:10144000F1F0124908800846008801F067FA044666
:101450000F4901F077FA0F490860084601680E4805
:1014600001F03CFB05460D4901F096F904460C4994
:1014700001F030F90B49086000200149087070BD87
:101480001C0000204C2401406800002010000020B7
:101490000000203A18000020E17AB43F04E78C3BBA
:1014A0000000C841140000201748806940F0100077
:1014B000154988610846806940F004008861134836
:1014C000406820F00C00114948600846406840F030
:1014D000010048600846406820F0C00048600846A7
:1014E000406840F0100048600846006820F00C009A
:1014F00008600846006820F003000860084600689D
:1015000040F00400086070470010024000100140E5
:1015100010B52C48806940F004002A4988610846CB
:10152000806940F0010088610846806940F40070DD
:1015300088610846406848602348006840F004001D
:101540002149086000BF2048006800F0040000281E
:10155000F9D01D48006840F001001B4908600846AA
:10156000006840F4000008600846006820F00200AF
:1015700008600846006840F460200860084600687B
:1015800040F480100860081D006840F4E010091D58
:1015900008600D482C30006840F01F000A492C31CB
:1015A00008600846006820F0100008600648001F28
:1015B000006840F020000449091F0860122000F074
:1015C00027F810BD00100240082401400E48806931
:1015D00040F004000C4988610C48006820F00400C9
:1015E0000A4908600846006840F00800086008469C
:1015F000006840F0030008600348406840F08060E5
:101600000149486070470000001002400408014092
:1016100000F01F02012191404209920002F1E022F4
:10162000C2F80011704700002B48006840F4803079
:101630002949086000BF2848006800F400300028ED
:10164000F9D01320254908602348406822494860A2
:101650000846406848600846406848600846406858
:1016600020F4701048600846406820F480304860DC
:101670000846406820F4003048600846406840F45E
:10168000803048600846406840F4003048600846B2
:10169000406840F4801048600846006840F0807060
:1016A000086000BF0C48006800F000700028F9D006
:1016B0000948406820F00300074948600846406830
:1016C00040F00200486000BF0348406800F00C0092
:1016D0000828F9D1704700000010024000200240A5
:1016E00010B50648008820F001000449088003492D
:1016F0001831088800F068F810BD00000428004088
:1017000010B52E48C06940F000602C49C8610846F9
:10171000C06940F08050C8612948006840F480707A
:10172000274908602548006A40F001002349086203
:1017300000BF2248006A00F002000028F9D01F48CC
:10174000006A40F480701D4908620846006A40F44F
:10175000004008621B48008840F0010019490880D9
:1017600000BF1848001D008800F008000028F8D0CD
:1017700000BF1448001D008800F020000028F8D0A9
:101780001048001D008840F010000E49091D088017
:101790000C480C30008847F6FF41084309490C31DA
:1017A00008800848001D008820F010000549091D28
:1017B00008800320FFF72CFF10BD0000001002403E
:1017C00000700040002800400146124A91FBF2F2EE
:1017D000114B1A700F4A91FBF2F302FB131290B2F5
:1017E0004FF4616290FBF2F20B4BDA704FF46162DE
:1017F00090FBF2F302FB130290B23C2290FBF2F258
:10180000054B9A703C2290FBF2F302FB1302024B51
:101810005A707047805101000400002010B500F09C
:1018200001F810BD0CB50020019000902A48006816
:1018300040F480302849086000BF2748006800F461
:10184000003000900198401C0190009818B9019850
:10185000B0F5A06FF1D12048006800F4003010B15D
:101860000120009001E0002000900098012831D173
:10187000194840681849486008464068486008466A
:10188000406848600846406820F47C10486008467C
:10189000406840F4981048600846006840F0807046
:1018A000086000BF0C48006800F000700028F9D004
:1018B0000948406820F0030007494860084640682E
:1018C00040F00200486000BF0348406800F00C0090
:1018D0000828F9D10CBD00000010024010B500BF6F
:1018E000BF2080F31188BFF34F8FBFF36F8F00BF0E
:1018F00000F0A8FD18B14FF080500449086000BF07
:10190000002080F3118800BF10BD000004ED00E04E
:1019100010B51448006840F00100124908600846FC
:101920004068114908400F494860084600680F495F
:1019300008400C4908600846006820F480200860D0
:101940000846406820F4FE0048604FF41F0088609D
:101950000020C862FFF762FF4FF000600449086092
:1019600010BD0000001002400000FFF8FFFFF6FE6F
:1019700008ED00E04FF08040008F0149086070479B
:101980000000002010B52948806940F00500274973
:1019900088610846C06940F00100C86124480068B9
:1019A00020F0C000224908600846006840F040006E
:1019B00008600846006820F03000086008460068AB
:1019C00020F4406008600846006820F44070086019
:1019D0000846006840F480700860154810300068C0
:1019E00040F48020124910310860172089060885CC
:1019F0000846008B40F4807008830846008B20F472
:101A00007C4008830846008C40F02000088408468B
:101A1000008C40F0100008840846808940F00400E3
:101A200088811C20FFF7F4FD10BD0000001002406B
:101A30000008014010B52348806940F480402149E6
:101A400088610846806940F0040088610846806922
:101A500040F0010088611C48006820F0C0001A496D
:101A600008600846006840F080000860084600688A
:101A700040F0300008600846006840F4806008606C
:101A80000846006820F44070086040F6C4100F4912
:101A90000880081D008840F00800091D08800846DD
:101AA000008840F0040008800846008840F4005098
:101AB00008800846008840F0200008802520FFF7B5
:101AC000A7FD10BD00100240040801400838014085
:101AD00010B51348008800F0200000B310480088BB
:101AE00020F020000E490880081D0088302808D109
:101AF0000CA000F033F80E48006940F080700C49EB
:101B000008610748001D0088312808D109A000F0AD
:101B100025F80748006940F480700549086110BD48
:101B2000003801404C4544204F46460D0A00000055
:101B3000001001404C4544204F4E0D0A00000000AB
:101B400000BF0549098801F040010029F9D0024988
:101B5000091D0880704700000038014010B502469A
:101B6000002305E019465C1CE3B2505CFFF7E8FF78
:101B7000D05C0028F6D110BD490050EAC12018BF42
:101B800004204A0D18BF40F0010040F2FF72B2EB92
:101B9000515F08BF40F00200012808BF05207047D0
:101BA00030380A2801D20120704700207047000019
:101BB0001CB5FFF739FDFFF709FDFFF775FCFFF7CF
:101BC00039FFFFF79DFDFFF7A3FCFFF7DBFE0020C9
:101BD000012103468022CDE9001018A1194800F028
:101BE00001FC0020012103468022CDE9001016A14E
:101BF000174800F0F7FB0020012103468022CDE9C1
:101C000000100EA1134800F0EDFB00200121034657
:101C10008022CDE900100CA10F4800F0E3FB00206A
:101C2000012103468022CDE9001007A10B4800F0F6
:101C3000D9FB00F0B7FA00BFFEE700004C45443185
:101C400000000000912200084C45443200000000D2
:101C50006D21000809210008CD220008E1200008BC
:101C60002DE9F04105460E461648076816480068FB
:101C7000001D00F0BFF9681C38B936B11248016880
:101C8000091D124800F0F4F91AE07C190E480068AA
:101C90004460BC4207D20C480168091D0C4800682A
:101CA00000F0CCF90CE008480168091D09480068FB
:101CB00000F0C4F908480068844201D20648046074
:101CC000BDE8F081400000202C00002030190020E9
:101CD00034000020300000205C00002010B50446D5
:101CE00000F0D2F922480068401C214908602148D0
:101CF000006840B91F4804600846006801280DD1FB
:101D000000F0D4F80AE01C48006838B919480068A7
:101D1000C06AE16A884201D8164804601748006822
:101D2000401C164908601649E06A0968884202D9D1
:101D30001349E06A0860E16A01EB8101114A02EB94
:101D40008100211D00F094F900F0B0F90A48006804
:101D500068B108480068C06AE16A884207D24FF05B
:101D6000805009490860BFF34F8FBFF36F8F10BDDC
:101D70003C0000202C0000204800002058000020DB
:101D8000440000207C18002004ED00E070B523E042
:101D900000F03AFA1348006808B9012000E000207A
:101DA000054600F0DBFBBDB900F06EF90D48C068D8
:101DB000C468201D00F01EF90B480068401E0A4947
:101DC00008600A480068401E0849086000F06EF983
:101DD000204600F00DF800BF044800680028D7D165
:101DE00070BD00001C1900203C00002038000020BD
:101DF00010B50446206B00F069F9204600F066F942
:101E000010BD000000BFFFF7C1FF064800680128B1
:101E1000F9D94FF0805004490860BFF34F8FBFF3EA
:101E20006F8FF0E77C18002004ED00E02DE9FF5FE4
:101E300080460E469146DDE90E7A109CA9F101001C
:101E4000216B01EB800B2BF0070B002507E0715D88
:101E500004F134004155705D00B902E06D1C102D95
:101E6000F5D300BF002143200155052F00D30427DF
:101E7000E762201D00F0DFF804F1180000F0DBF845
:101E80002461C7F10500A06164620020606484F8E9
:101E9000480041465846039A00F09AF82060BAF18B
:101EA000000F01D0CAF80040BDE8FF9F10B5002424
:101EB00007E004EB84010F4A02EB810000F0AEF86A
:101EC000641C052CF5D30C4800F0A8F80B4800F072
:101ED000A5F80B4800F0A2F80A4800F09FF80A485D
:101EE00000F09CF804480949086004480849086063
:101EF00010BD00007C180020E0180020F41800201D
:101F0000081900201C190020301900203000002082
:101F1000340000200A490968096809B9012100E074
:101F2000002121B14FF0FF31064A116006E004495B
:101F30000968C968C868034A4168116070470000B1
:101F4000300000205C00002000BFBF2080F311881B
:101F5000BFF34F8FBFF36F8F00BF00BFFEE70000DE
:101F600070B50446002504F0070020B104F0070016
:101F7000C0F10800044400F047F91248006820B995
:101F8000114820F007000F490860104800682044FD
:101F900041F2F871884210D20C48006820440B4985
:101FA0000968884209D9074800680849096845183E
:101FB0000648006820440549086000F0CFFA28462A
:101FC00070BD0000240000208400002020000020BC
:101FD000001F4FF080730360001F21F001030360B6
:101FE000001F034B03601438026020387047000064
:101FF000491F000801460A69D1E901309860D1E91A
:10200000010358605068884201D188685060002000
:1020100008611068401E10601068704700F10801E8
:1020200041604FF0FF31816000F10801C160016142
:1020300000210160704700210161704710B5024620
:102040000B685C1C0CB9106907E002F1080000E0A5
:102050004068446824689C42FAD944684C604C68E3
:10206000A160886041600A611468641C146010BD3E
:1020700042684A6093688B60936859609160086118
:1020800003685B1C0360704700BFBF2080F31188AA
:10209000BFF34F8FBFF36F8F00BF03480068401C32
:1020A00001490860704700002800002006480068C9
:1020B000401E054908600846006820B9002080F3EA
:1020C000118800BF00BF704728000020704745F608
:1020D000BF504FF0E02148610720086170470000C1
:1020E0000FE00848006800F0020038B905480830E1
:1020F000006840F48000034908310860322000F095
:102100001BF8EEE70024014010E00948006800F0E9
:10211000010040B1642000F00FF80648008880F00C
:10212000080004490880C82000F006F8EDE7000028
:10213000080801400C38014070B50446002544B140
:1021400000F062F800212046FFF78AFD00F006FA51
:1021500005463DB94FF0805003490860BFF34F8FEB
:10216000BFF36F8F70BD000004ED00E015E00B4879
:10217000006940F4807009490861094909688808C4
:10218000FFF7DAFF0548006940F0807003490861F5
:10219000034909688808FFF7CFFFE8E7001001400E
:1021A000000000201CB5114800210B462022CDE97B
:1021B00000100FA1104800F015F90446012C14D1AD
:1021C00000BFBF2080F31188BFF34F8FBFF36F8F25
:1021D00000BF4FF0FF30094908600120084908603E
:1021E00000200849086000F0E3F81CBD60000020F2
:1021F00049444C4500000000051E00085C0000201A
:10220000480000204000002002480068401C0149AE
:1022100008607047640000201848006818B1012069
:102220001749086028E00020154908601548016832
:1022300000E0491E01EB8100134A52F8200008B962
:10224000012000E000200028F3D101EB81020E4BB9
:1022500003EB820042685268426000F10802436862
:10226000934202D14268526842604268D268074B8A
:102270001A600448016000BF70470000640000203D
:1022800050000020440000207C1800202C0000207A
:1022900019E00D48006840F004000B4908600A206E
:1022A000FFF74AFF0848006840F4802006490860AC
:1022B0000020890688840846008840F001000880D4
:1022C0006420FFF739FFE4E71008014044E02348A9
:1022D000027823A12348FDF7EDFF2248FFF73EFCDB
:1022E00021A0FFF73BFC1D48C2781DA11D48FDF74A
:1022F000E1FF1C48FFF732FC1DA0FFF72FFC174839
:10230000827817A11748FDF7D5FF1648FFF726FC7E
:1023100019A0FFF723FC1148427811A11148FDF7DD
:10232000C9FF1048FFF71AFC16A0FFF717FC184862
:10233000006800F0A3F9044622460B4615A1174891
:10234000FDF7B8FF1548FFF709FC15A0FFF706FCDD
:102350004FF47A70FFF7F0FEB9E7000004000020A8
:102360002575000008000020204461790A20000043
:1023700020486F75720A2000204D696E7574650AD9
:1023800020000000205365636F6E640A2000000087
:1023900014000020252E3366000000000C000020F1
:1023A0002054656D70657261747572650D0A000068
:1023B00010B50A48006840F47F00084908600846E4
:1023C000006840F07F400860FFF781FE002004496C
:1023D0000860FDF715FF002010BD000020ED00E0B3
:1023E000280000202DE9FF4F85B08046894617461A
:1023F000DDE912ABB800FFF7B3FD064656B14C203D
:10240000FFF7AEFD04460CB1266304E03046FFF74B
:102410005DFE00E000247CB10020CDE900ABCDE9F9
:1024200002403A4649464046089BFFF7FFFC2046DB
:10243000FFF754FC012501E04FF0FF35284609B0B5
:10244000BDE8F08F2DE9F0410027394800680028E9
:1024500062D138480068451C364805608DB9364859
:10246000D0F8008035480068334908603348C0F828
:10247000008033480068401C31490860FFF74AFD7E
:1024800000BF3048006885423AD300BF2A48006840
:10249000006808B9012000E0002020B14FF0FF30B3
:1024A000284908602BE024480068C068C468666852
:1024B000B54202D22348066021E0201DFFF79AFDB5
:1024C000A06A18B104F11800FFF794FD1E49E06AF4
:1024D0000968884202D91C49E06A0860E16A01EB98
:1024E00081011A4A02EB8100211DFFF7C1FD184945
:1024F000E06A0968C96A8842C8D30127C6E700BFF5
:1025000013480068C06A00EB8000104951F82000B1
:10251000012800D9012704E00E480068401C0D493D
:1025200008600D48006800B101273846BDE8F08119
:102530006400002040000020300000203400002013
:10254000540000205C000020440000207C18002083
:102550002C0000204C0000205000002070B500240A
:102560000026FFF791FD2E480068401E2C490860A8
:102570000846006800284ED12A48006800284AD042
:1025800023E02948C068C46804F11800FFF732FD51
:10259000201DFFF72FFD2549E06A0968884202D90E
:1025A0002249E06A0860E16A01EB8101204A02EBFE
:1025B0008100211DFFF75CFD1E49E06A0968C96AB8
:1025C000884202D301201C4908601748006808B9F6
:1025D000012000E000200028D3D00CB1FFF79AFCC6
:1025E0001648056865B100BFFFF72CFF10B1012048
:1025F000114908606D1E002DF6D100200F490860BA
:102600000D48006838B1012630070D490860BFF356
:102610004F8FBFF36F8FFFF749FD304670BD00004D
:10262000640000203C000020081900204400002025
:102630007C1800202C000020500000204C000020BE
:1026400004ED00E010B500290AD00878002807D072
:1026500005487844FEF7BCFA002801D0002010BDE0
:102660000248784410BD00002E0600002606000037
:102670000808A0F500114FEA3101704743004FEA06
:10268000D30C4FEA3C0C43401FBF40070CF1605194
:1026900013F0FE4F70471CF0006F03D100200CF0C8
:1026A000004170470CF0004343EA507010B540EA17
:1026B000CC0000F0C8F900BF000000924FEA000112
:1026C000FFF7D6BF4FF000414FF00000A1F5002109
:1026D0007047000090EA010F48BF81F0004100F10F
:1026E0000482421A3CBF801A89184FEAD0524FF038
:1026F0007F4C1CEA410FA2EBD15318BF9CEA026F3A
:1027000000F03B804FF0004C4CEA00204CEA0121E5
:1027100021FA03FC10EB0C0C1ED202F1FF325FEA2F
:102720001C2040EBC25038BF70471CF07F0F4FEAAF
:10273000400C18BFBCF17F4F38BF7047C3F1200376
:10274000994008BF20F00100BCF17F4F38BF7047AF
:10275000A0F1C04000F0BDB94FEA3C00000A40EBD8
:10276000C25028BF1CF0FF0F4FEA400CE6D018BF44
:10277000BCF17F4F38BF7047EAE79CEA026F05D093
:1027800010EA5C0F08BF00F00040704710B500F081
:102790005AF900BF64FBBE3E4FF47F0C1CEAD01216
:1027A0001EBF1CEAD11392EA0C0F93EA0C0F00F043
:1027B000858090EA010F48BF42F4807240F4000C1B
:1027C00041F400002CF07F4120F07F4000B58142B1
:1027D000A2EB03020FF2081CACEB504EC0F100005C
:1027E0009EF800E04FEA4E0E00FB0EFC38BF490099
:1027F0004FEA2C1C02F5FA020CFB0EF34FEACE1E38
:102800004FEA112C4FEAC1210EEB635E42EB2242EC
:102810000EFB0CFC4FEA1C5300FB03114FEA112C7A
:102820004FEA01310EFB0CFC4FEADC4C00FB0C11B3
:10283000C14228BF09184CEB03335DF804EB10EBE1
:10284000410143EBC250B2F57C0F38BF704729D528
:1028500012F0F00F1CBF00F1C04000F000407047C4
:10286000008182838485868788898B8C8D8E8F9169
:102870009293959697999A9C9D9FA0A2A3A5A7A88D
:10288000AAACAEB0B2B3B5B7B9BCBEC0C2C5C7C9B9
:10289000CCCED1D4D7D9DCDFE2E6E9ECF0F3F7FA1D
:1028A000FE0000004FEA400C0CF1807CBCF17E4F32
:1028B00028BF7047B0F1C04000F00BB990EA010F9B
:1028C0000CEAD11348BF42F48072624538BF6345B9
:1028D00007D213F47F0F16D080EA010000F0004009
:1028E000704710B500F0AFF8097EFC3E00F005B867
:1028F00080EA010000F00040704780EA010000F02B
:10290000004000F0E6B812F47F0F04BF02487047A1
:1029100080EA010000F0DDB80000C07FB0FA80F36B
:1029200010FA03F2C3F19D030AD0D90501EB12207E
:10293000530638BF704700F1010008BF20F00100C6
:10294000704700004FF47F0C1CEAD0121EBF1CEA37
:10295000D11392EA0C0F93EA0C0F00F0478090EA33
:10296000010F48BF42F480724FF0004C4CEA002047
:102970004CEA012102EB0302A0FB0113A2F50002C5
:10298000002918BF43F001035B0028BF4FEA33035F
:1029900042EB22425FEA132C4CEBC2502EBFBCEB41
:1029A000436FB2F57C0F70474FEA036CBCF1004FE8
:1029B00008BF20F00100B2F57C0F38BF70470BD57F
:1029C00082F0FF0212F5803FC8BF704700F1C0409F
:1029D000D8BF00F00040704700F5000C5FEA4C0CD7
:1029E00048BF7047B0F1C04000F073B890EA010FE3
:1029F0000CEAD11348BF42F48072624538BF634588
:102A000004D280EA010000F00040704710B500F0E9
:102A10001AF800BF8900013E00F007B800F009B8BD
:102A20005FEA410C5FEA1C6C08D080EA010000F00C
:102A300050B85FEA400C5FEA1C6CF6D14FF00040E2
:102A4000A0F5800070470EF1020E2EF0030E5EF826
:102A5000044B244204D44FEA4102B2F17F4F11D813
:102A60004FEA4003B3F17F4F0CD80ED14FEAD07C30
:102A7000B2F17F4F0CEB4C0C0CF1020C08BF4CEB8D
:102A8000D17C04E04FF0080C01E04FEAD17C0CEB64
:102A90004C0324FA03F404F00704B4F1040C06D246
:102AA0000EEB840CBDE810404CF0010C6047DFE8F1
:102AB0000CF0070802024FF00040A0F5800010BDA6
:102AC0000846420018BFD2F1807288BF00F0004073
:102AD00010BDFF2141EAD050C005704790EA010FB8
:102AE00048BF81F000413FF5FCAD421A04D882F0A6
:102AF0000042A0EB020011444FEAD0524FF07F4C4D
:102B00001CEA410FA2EBD15318BF9CEA026F4AD0D6
:102B10004FF0004C4CEA00204CEA012121FA03FC62
:102B2000B0EB0C0C0FD412F0FE0F36D05FEA4C0065
:102B30001DD5001240EBC25038BF70471CF03F0F4C
:102B400018BF70470BE0A2F101025FEA1C2040EBC6
:102B5000C25038BF70471CF07F0F18BF7047C3F1D9
:102B60002003994014BF401E20F0010070478008E8
:102B70004FEA122308BF7047B0FA80FCA2EB0C02A8
:102B8000CCF1280C60FA0CF093EA122F04BF00EB92
:102B9000C25070474FEAC3707047130A5FEADC10F7
:102BA00008BF7047F6E79CEA026F04D010EA5C0F9A
:102BB00008BF0020704710B5FFF745FF40DFF63E25
:102BC00081F000407047FDF781BD00000240000029
:102BD000000000A00000000005400000000000C848
:102BE000000000000C4000000000409C00000000BD
:102BF000194000000020BCBE00000000344000006E
:102C0000BFC91B8E00000004B5400000504BCFD060
:102C10006607E2CF010000006C4100003E8251AA2D
:102C2000DFEEA73401000000D9420000DCB5A0E2CD
:102C30003A301F97FFFFFFFFB4450000FD25A0C8F5
:102C4000E9A3C14FFFFFFFFFFF3F0000000000802E
:102C500000000000FF3F00000000008000000000B6
:102C60009C2C000800000020680000005C010008A7
:102C7000042D000868000020401F000078010008B3
:102C80001C00000043000000F8FFFFFF0C000000E4
:102C90000E0000000F0000002E00000000000000E9
:102CA0000000000000000000000000000000000024
:102CB0000000000000000000000000000000000014
:102CC00000000000AAAAAAAA00000000000000005C
:102CD00000000000000000000000000000000000F4
:102CE00000000000000000000000000000000000E4
:102CF00000000000000000000000000000000000D4
:042D000000000000CF
:040000050800027578
:00000001FF
